{
  "_format": "hh-sol-artifact-1",
  "contractName": "AccessControlList",
  "sourceName": "contracts/Lock.sol",
  "abi": [
    {
      "inputs": [],
      "stateMutability": "nonpayable",
      "type": "constructor"
    },
    {
      "inputs": [
        {
          "internalType": "address",
          "name": "owner",
          "type": "address"
        }
      ],
      "name": "OwnableInvalidOwner",
      "type": "error"
    },
    {
      "inputs": [
        {
          "internalType": "address",
          "name": "account",
          "type": "address"
        }
      ],
      "name": "OwnableUnauthorizedAccount",
      "type": "error"
    },
    {
      "anonymous": false,
      "inputs": [
        {
          "indexed": true,
          "internalType": "address",
          "name": "previousOwner",
          "type": "address"
        },
        {
          "indexed": true,
          "internalType": "address",
          "name": "newOwner",
          "type": "address"
        }
      ],
      "name": "OwnershipTransferred",
      "type": "event"
    },
    {
      "anonymous": false,
      "inputs": [
        {
          "indexed": false,
          "internalType": "address",
          "name": "user",
          "type": "address"
        },
        {
          "indexed": false,
          "internalType": "bool",
          "name": "loggedIn",
          "type": "bool"
        },
        {
          "indexed": false,
          "internalType": "uint256",
          "name": "timestamp",
          "type": "uint256"
        }
      ],
      "name": "UserAccessRecorded",
      "type": "event"
    },
    {
      "anonymous": false,
      "inputs": [
        {
          "indexed": false,
          "internalType": "address",
          "name": "user",
          "type": "address"
        }
      ],
      "name": "UserLoggedIn",
      "type": "event"
    },
    {
      "anonymous": false,
      "inputs": [
        {
          "indexed": false,
          "internalType": "address",
          "name": "user",
          "type": "address"
        }
      ],
      "name": "UserLoggedOut",
      "type": "event"
    },
    {
      "anonymous": false,
      "inputs": [
        {
          "indexed": false,
          "internalType": "address",
          "name": "user",
          "type": "address"
        },
        {
          "indexed": false,
          "internalType": "enum AccessControlList.UserRole",
          "name": "role",
          "type": "uint8"
        }
      ],
      "name": "UserRoleAssigned",
      "type": "event"
    },
    {
      "inputs": [
        {
          "internalType": "address",
          "name": "_user",
          "type": "address"
        },
        {
          "internalType": "enum AccessControlList.UserRole",
          "name": "_role",
          "type": "uint8"
        }
      ],
      "name": "assignUserRole",
      "outputs": [],
      "stateMutability": "nonpayable",
      "type": "function"
    },
    {
      "inputs": [
        {
          "internalType": "address",
          "name": "_user",
          "type": "address"
        }
      ],
      "name": "getUserRole",
      "outputs": [
        {
          "internalType": "enum AccessControlList.UserRole",
          "name": "",
          "type": "uint8"
        }
      ],
      "stateMutability": "view",
      "type": "function"
    },
    {
      "inputs": [],
      "name": "getUsers",
      "outputs": [
        {
          "internalType": "address[]",
          "name": "",
          "type": "address[]"
        },
        {
          "internalType": "enum AccessControlList.UserRole[]",
          "name": "",
          "type": "uint8[]"
        }
      ],
      "stateMutability": "view",
      "type": "function"
    },
    {
      "inputs": [
        {
          "internalType": "address",
          "name": "",
          "type": "address"
        }
      ],
      "name": "loggedInUsers",
      "outputs": [
        {
          "internalType": "bool",
          "name": "",
          "type": "bool"
        }
      ],
      "stateMutability": "view",
      "type": "function"
    },
    {
      "inputs": [],
      "name": "login",
      "outputs": [],
      "stateMutability": "nonpayable",
      "type": "function"
    },
    {
      "inputs": [],
      "name": "logout",
      "outputs": [],
      "stateMutability": "nonpayable",
      "type": "function"
    },
    {
      "inputs": [],
      "name": "owner",
      "outputs": [
        {
          "internalType": "address",
          "name": "",
          "type": "address"
        }
      ],
      "stateMutability": "view",
      "type": "function"
    },
    {
      "inputs": [
        {
          "internalType": "address",
          "name": "_user",
          "type": "address"
        },
        {
          "internalType": "enum AccessControlList.UserRole",
          "name": "_role",
          "type": "uint8"
        }
      ],
      "name": "registerUser",
      "outputs": [],
      "stateMutability": "nonpayable",
      "type": "function"
    },
    {
      "inputs": [],
      "name": "renounceOwnership",
      "outputs": [],
      "stateMutability": "nonpayable",
      "type": "function"
    },
    {
      "inputs": [
        {
          "internalType": "address",
          "name": "newOwner",
          "type": "address"
        }
      ],
      "name": "transferOwnership",
      "outputs": [],
      "stateMutability": "nonpayable",
      "type": "function"
    },
    {
      "inputs": [
        {
          "internalType": "uint256",
          "name": "",
          "type": "uint256"
        }
      ],
      "name": "userAddresses",
      "outputs": [
        {
          "internalType": "address",
          "name": "",
          "type": "address"
        }
      ],
      "stateMutability": "view",
      "type": "function"
    },
    {
      "inputs": [
        {
          "internalType": "address",
          "name": "",
          "type": "address"
        }
      ],
      "name": "users",
      "outputs": [
        {
          "internalType": "address",
          "name": "userAddress",
          "type": "address"
        },
        {
          "internalType": "enum AccessControlList.UserRole",
          "name": "userRole",
          "type": "uint8"
        }
      ],
      "stateMutability": "view",
      "type": "function"
    }
  ],
  "bytecode": "0x60806040523480156200001157600080fd5b5033600073ffffffffffffffffffffffffffffffffffffffff168173ffffffffffffffffffffffffffffffffffffffff1603620000885760006040517f1e4fbdf70000000000000000000000000000000000000000000000000000000081526004016200007f919062000345565b60405180910390fd5b62000099816200023c60201b60201c565b5060405180604001604052803373ffffffffffffffffffffffffffffffffffffffff16815260200160006002811115620000d857620000d762000362565b5b815250600160003373ffffffffffffffffffffffffffffffffffffffff1673ffffffffffffffffffffffffffffffffffffffff16815260200190815260200160002060008201518160000160006101000a81548173ffffffffffffffffffffffffffffffffffffffff021916908373ffffffffffffffffffffffffffffffffffffffff16021790555060208201518160000160146101000a81548160ff021916908360028111156200018f576200018e62000362565b5b02179055509050506003339080600181540180825580915050600190039060005260206000200160009091909190916101000a81548173ffffffffffffffffffffffffffffffffffffffff021916908373ffffffffffffffffffffffffffffffffffffffff1602179055507f73dac2552c7f6613fbf8503e9838d639ff54bcd7e99524dd8600321b2fb6d77c3360006040516200022e929190620003e2565b60405180910390a16200040f565b60008060009054906101000a900473ffffffffffffffffffffffffffffffffffffffff169050816000806101000a81548173ffffffffffffffffffffffffffffffffffffffff021916908373ffffffffffffffffffffffffffffffffffffffff1602179055508173ffffffffffffffffffffffffffffffffffffffff168173ffffffffffffffffffffffffffffffffffffffff167f8be0079c531659141344cd1fd0a4f28419497f9722a3daafe3b4186f6b6457e060405160405180910390a35050565b600073ffffffffffffffffffffffffffffffffffffffff82169050919050565b60006200032d8262000300565b9050919050565b6200033f8162000320565b82525050565b60006020820190506200035c600083018462000334565b92915050565b7f4e487b7100000000000000000000000000000000000000000000000000000000600052602160045260246000fd5b60038110620003a557620003a462000362565b5b50565b6000819050620003b88262000391565b919050565b6000620003ca82620003a8565b9050919050565b620003dc81620003bd565b82525050565b6000604082019050620003f9600083018562000334565b620004086020830184620003d1565b9392505050565b611887806200041f6000396000f3fe608060405234801561001057600080fd5b50600436106100b35760003560e01c8063715018a611610071578063715018a61461018d5780638da5cb5b146101975780639e9fa097146101b5578063a87430ba146101d1578063b34e97e814610202578063f2fde38b1461020c576100b3565b8062ce8e3e146100b85780631f3c99c3146100d757806327820851146100e1578063502c9bd514610111578063505eed981461014157806361a3149e1461015d575b600080fd5b6100c0610228565b6040516100ce9291906112de565b60405180910390f35b6100df610454565b005b6100fb60048036038101906100f69190611346565b6105ad565b6040516101089190611382565b60405180910390f35b61012b600480360381019061012691906113d3565b610606565b604051610138919061140f565b60405180910390f35b61015b6004803603810190610156919061144f565b610645565b005b61017760048036038101906101729190611346565b6109a7565b60405161018491906114aa565b60405180910390f35b6101956109c7565b005b61019f6109db565b6040516101ac919061140f565b60405180910390f35b6101cf60048036038101906101ca919061144f565b610a04565b005b6101eb60048036038101906101e69190611346565b610c73565b6040516101f99291906114c5565b60405180910390f35b61020a610cc4565b005b61022660048036038101906102219190611346565b610eef565b005b6060806000600380549050905060008167ffffffffffffffff811115610251576102506114ee565b5b60405190808252806020026020018201604052801561027f5781602001602082028036833780820191505090505b50905060008267ffffffffffffffff81111561029e5761029d6114ee565b5b6040519080825280602002602001820160405280156102cc5781602001602082028036833780820191505090505b50905060005b8381101561044657600381815481106102ee576102ed61151d565b5b9060005260206000200160009054906101000a900473ffffffffffffffffffffffffffffffffffffffff1683828151811061032c5761032b61151d565b5b602002602001019073ffffffffffffffffffffffffffffffffffffffff16908173ffffffffffffffffffffffffffffffffffffffff1681525050600160006003838154811061037e5761037d61151d565b5b9060005260206000200160009054906101000a900473ffffffffffffffffffffffffffffffffffffffff1673ffffffffffffffffffffffffffffffffffffffff1673ffffffffffffffffffffffffffffffffffffffff16815260200190815260200160002060000160149054906101000a900460ff168282815181106104075761040661151d565b5b60200260200101906002811115610421576104206111e4565b5b90816002811115610435576104346111e4565b5b8152505080806001019150506102d2565b508181945094505050509091565b600260003373ffffffffffffffffffffffffffffffffffffffff1673ffffffffffffffffffffffffffffffffffffffff16815260200190815260200160002060009054906101000a900460ff166104e0576040517f08c379a00000000000000000000000000000000000000000000000000000000081526004016104d7906115a9565b60405180910390fd5b6000600260003373ffffffffffffffffffffffffffffffffffffffff1673ffffffffffffffffffffffffffffffffffffffff16815260200190815260200160002060006101000a81548160ff0219169083151502179055507fc6ef449222bae3754898fc5fa944d52dfc53c0ee1fdd7d733fbb422ac5e2b8c833604051610567919061140f565b60405180910390a17f3a17d0fa7b8d68df3d4c0a8a0c09167144bebdf67ad24f7df14ffbf1dca4334d336000426040516105a3939291906115d8565b60405180910390a1565b6000600160008373ffffffffffffffffffffffffffffffffffffffff1673ffffffffffffffffffffffffffffffffffffffff16815260200190815260200160002060000160149054906101000a900460ff169050919050565b6003818154811061061657600080fd5b906000526020600020016000915054906101000a900473ffffffffffffffffffffffffffffffffffffffff1681565b60016002811115610659576106586111e4565b5b600160003373ffffffffffffffffffffffffffffffffffffffff1673ffffffffffffffffffffffffffffffffffffffff16815260200190815260200160002060000160149054906101000a900460ff1660028111156106bb576106ba6111e4565b5b148061073a5750600060028111156106d6576106d56111e4565b5b600160003373ffffffffffffffffffffffffffffffffffffffff1673ffffffffffffffffffffffffffffffffffffffff16815260200190815260200160002060000160149054906101000a900460ff166002811115610738576107376111e4565b5b145b610779576040517f08c379a000000000000000000000000000000000000000000000000000000000815260040161077090611681565b60405180910390fd5b600073ffffffffffffffffffffffffffffffffffffffff16600160008473ffffffffffffffffffffffffffffffffffffffff1673ffffffffffffffffffffffffffffffffffffffff16815260200190815260200160002060000160009054906101000a900473ffffffffffffffffffffffffffffffffffffffff1673ffffffffffffffffffffffffffffffffffffffff160361084a576040517f08c379a0000000000000000000000000000000000000000000000000000000008152600401610841906116ed565b60405180910390fd5b6000600281111561085e5761085d6111e4565b5b600160008473ffffffffffffffffffffffffffffffffffffffff1673ffffffffffffffffffffffffffffffffffffffff16815260200190815260200160002060000160149054906101000a900460ff1660028111156108c0576108bf6111e4565b5b03610900576040517f08c379a00000000000000000000000000000000000000000000000000000000081526004016108f790611759565b60405180910390fd5b80600160008473ffffffffffffffffffffffffffffffffffffffff1673ffffffffffffffffffffffffffffffffffffffff16815260200190815260200160002060000160146101000a81548160ff02191690836002811115610965576109646111e4565b5b02179055507f73dac2552c7f6613fbf8503e9838d639ff54bcd7e99524dd8600321b2fb6d77c828260405161099b9291906114c5565b60405180910390a15050565b60026020528060005260406000206000915054906101000a900460ff1681565b6109cf610f75565b6109d96000610ffc565b565b60008060009054906101000a900473ffffffffffffffffffffffffffffffffffffffff16905090565b610a0c610f75565b600073ffffffffffffffffffffffffffffffffffffffff16600160008473ffffffffffffffffffffffffffffffffffffffff1673ffffffffffffffffffffffffffffffffffffffff16815260200190815260200160002060000160009054906101000a900473ffffffffffffffffffffffffffffffffffffffff1673ffffffffffffffffffffffffffffffffffffffff1614610add576040517f08c379a0000000000000000000000000000000000000000000000000000000008152600401610ad4906117c5565b60405180910390fd5b60405180604001604052808373ffffffffffffffffffffffffffffffffffffffff168152602001826002811115610b1757610b166111e4565b5b815250600160008473ffffffffffffffffffffffffffffffffffffffff1673ffffffffffffffffffffffffffffffffffffffff16815260200190815260200160002060008201518160000160006101000a81548173ffffffffffffffffffffffffffffffffffffffff021916908373ffffffffffffffffffffffffffffffffffffffff16021790555060208201518160000160146101000a81548160ff02191690836002811115610bcb57610bca6111e4565b5b02179055509050506003829080600181540180825580915050600190039060005260206000200160009091909190916101000a81548173ffffffffffffffffffffffffffffffffffffffff021916908373ffffffffffffffffffffffffffffffffffffffff1602179055507f73dac2552c7f6613fbf8503e9838d639ff54bcd7e99524dd8600321b2fb6d77c8282604051610c679291906114c5565b60405180910390a15050565b60016020528060005260406000206000915090508060000160009054906101000a900473ffffffffffffffffffffffffffffffffffffffff16908060000160149054906101000a900460ff16905082565b600073ffffffffffffffffffffffffffffffffffffffff16600160003373ffffffffffffffffffffffffffffffffffffffff1673ffffffffffffffffffffffffffffffffffffffff16815260200190815260200160002060000160009054906101000a900473ffffffffffffffffffffffffffffffffffffffff1673ffffffffffffffffffffffffffffffffffffffff1603610d95576040517f08c379a0000000000000000000000000000000000000000000000000000000008152600401610d8c906116ed565b60405180910390fd5b600260003373ffffffffffffffffffffffffffffffffffffffff1673ffffffffffffffffffffffffffffffffffffffff16815260200190815260200160002060009054906101000a900460ff1615610e22576040517f08c379a0000000000000000000000000000000000000000000000000000000008152600401610e1990611831565b60405180910390fd5b6001600260003373ffffffffffffffffffffffffffffffffffffffff1673ffffffffffffffffffffffffffffffffffffffff16815260200190815260200160002060006101000a81548160ff0219169083151502179055507f8d15fde878cff665868ed7579eb5081db6508d4249df61dcdd7699a5301d987433604051610ea9919061140f565b60405180910390a17f3a17d0fa7b8d68df3d4c0a8a0c09167144bebdf67ad24f7df14ffbf1dca4334d33600142604051610ee5939291906115d8565b60405180910390a1565b610ef7610f75565b600073ffffffffffffffffffffffffffffffffffffffff168173ffffffffffffffffffffffffffffffffffffffff1603610f695760006040517f1e4fbdf7000000000000000000000000000000000000000000000000000000008152600401610f60919061140f565b60405180910390fd5b610f7281610ffc565b50565b610f7d6110c0565b73ffffffffffffffffffffffffffffffffffffffff16610f9b6109db565b73ffffffffffffffffffffffffffffffffffffffff1614610ffa57610fbe6110c0565b6040517f118cdaa7000000000000000000000000000000000000000000000000000000008152600401610ff1919061140f565b60405180910390fd5b565b60008060009054906101000a900473ffffffffffffffffffffffffffffffffffffffff169050816000806101000a81548173ffffffffffffffffffffffffffffffffffffffff021916908373ffffffffffffffffffffffffffffffffffffffff1602179055508173ffffffffffffffffffffffffffffffffffffffff168173ffffffffffffffffffffffffffffffffffffffff167f8be0079c531659141344cd1fd0a4f28419497f9722a3daafe3b4186f6b6457e060405160405180910390a35050565b600033905090565b600081519050919050565b600082825260208201905092915050565b6000819050602082019050919050565b600073ffffffffffffffffffffffffffffffffffffffff82169050919050565b600061111f826110f4565b9050919050565b61112f81611114565b82525050565b60006111418383611126565b60208301905092915050565b6000602082019050919050565b6000611165826110c8565b61116f81856110d3565b935061117a836110e4565b8060005b838110156111ab5781516111928882611135565b975061119d8361114d565b92505060018101905061117e565b5085935050505092915050565b600081519050919050565b600082825260208201905092915050565b6000819050602082019050919050565b7f4e487b7100000000000000000000000000000000000000000000000000000000600052602160045260246000fd5b60038110611224576112236111e4565b5b50565b600081905061123582611213565b919050565b600061124582611227565b9050919050565b6112558161123a565b82525050565b6000611267838361124c565b60208301905092915050565b6000602082019050919050565b600061128b826111b8565b61129581856111c3565b93506112a0836111d4565b8060005b838110156112d15781516112b8888261125b565b97506112c383611273565b9250506001810190506112a4565b5085935050505092915050565b600060408201905081810360008301526112f8818561115a565b9050818103602083015261130c8184611280565b90509392505050565b600080fd5b61132381611114565b811461132e57600080fd5b50565b6000813590506113408161131a565b92915050565b60006020828403121561135c5761135b611315565b5b600061136a84828501611331565b91505092915050565b61137c8161123a565b82525050565b60006020820190506113976000830184611373565b92915050565b6000819050919050565b6113b08161139d565b81146113bb57600080fd5b50565b6000813590506113cd816113a7565b92915050565b6000602082840312156113e9576113e8611315565b5b60006113f7848285016113be565b91505092915050565b61140981611114565b82525050565b60006020820190506114246000830184611400565b92915050565b6003811061143757600080fd5b50565b6000813590506114498161142a565b92915050565b6000806040838503121561146657611465611315565b5b600061147485828601611331565b92505060206114858582860161143a565b9150509250929050565b60008115159050919050565b6114a48161148f565b82525050565b60006020820190506114bf600083018461149b565b92915050565b60006040820190506114da6000830185611400565b6114e76020830184611373565b9392505050565b7f4e487b7100000000000000000000000000000000000000000000000000000000600052604160045260246000fd5b7f4e487b7100000000000000000000000000000000000000000000000000000000600052603260045260246000fd5b600082825260208201905092915050565b7f55736572206e6f74206c6f6767656420696e0000000000000000000000000000600082015250565b600061159360128361154c565b915061159e8261155d565b602082019050919050565b600060208201905081810360008301526115c281611586565b9050919050565b6115d28161139d565b82525050565b60006060820190506115ed6000830186611400565b6115fa602083018561149b565b61160760408301846115c9565b949350505050565b7f4f6e6c792061646d696e73206f72206f776e65722063616e206163636573732060008201527f74686973207265736f7572636500000000000000000000000000000000000000602082015250565b600061166b602d8361154c565b91506116768261160f565b604082019050919050565b6000602082019050818103600083015261169a8161165e565b9050919050565b7f55736572206e6f74207265676973746572656400000000000000000000000000600082015250565b60006116d760138361154c565b91506116e2826116a1565b602082019050919050565b60006020820190508181036000830152611706816116ca565b9050919050565b7f43616e6e6f74206368616e6765204f776e6572277320726f6c65000000000000600082015250565b6000611743601a8361154c565b915061174e8261170d565b602082019050919050565b6000602082019050818103600083015261177281611736565b9050919050565b7f5573657220616c72656164792072656769737465726564000000000000000000600082015250565b60006117af60178361154c565b91506117ba82611779565b602082019050919050565b600060208201905081810360008301526117de816117a2565b9050919050565b7f5573657220616c7265616479206c6f6767656420696e00000000000000000000600082015250565b600061181b60168361154c565b9150611826826117e5565b602082019050919050565b6000602082019050818103600083015261184a8161180e565b905091905056fea2646970667358221220437e7f644eb0320a57ad78e0e55fa2d80dbf33392baf9753c224db8c86c0ee4264736f6c63430008180033",
  "linkReferences": {},
  "deployedLinkReferences": {}
}